:060000000A128A110E280D
:10000800FE00030E83120313B5000A08B6000A1295
:100018008A15482D0A128A11112883120313D70151
:10002800D80183160313BB01BC01BD0183010A1269
:100038008A11A32A831203134C0883160313A400FE
:100048008030A405831203134C08CD004D07831696
:100058000313AB0083120313CB1F3328342837282C
:10006800831603132B14831603132B0803193D2837
:100078003E2851282B0A031D422843284D280030CA
:1000880083120313CC000030CB000030CA000030CC
:10009800C9008312CB17CC015B28003083120313ED
:1000A800CC000030CB000030CA000030C90048083E
:1000B800803983160313A406831203134808CD005E
:1000C8004D0783160313AC0083120313C71F6D2853
:1000D8006E287128831603132C14831603132C0817
:1000E8000319772878288B282C0A031D7C287D285B
:1000F8008728003083120313C8000030C70000307F
:10010800C6000030C5008312C717C8019528003003
:1001180083120313C8000030C7000030C600003047
:10012800C5004808470446044504031D9C289D282B
:10013800B8280030CC000030CB000030CA000030B6
:10014800C9008030CB047F30CC0483160313240805
:1001580083120313CC044C08C8004B08C7004A0894
:10016800C6004908C500A22A831603132B08031DDD
:10017800BE28BF28CA28003083120313C8000030E5
:10018800C7000030C6000030C500A22A2B08831221
:100198000313CD00CE014E08D000831603132C089C
:1001A800831203134D02CF00031CD0034F087F3E78
:1001B80083160313A5008312031350080318013E86
:1001C800003E83160313A600831203134C088316FC
:1001D8000313A300831203134B0883160313A2000F
:1001E800831203134A0883160313A100831203130F
:1001F800490883160313A000003083120313CC00B0
:100208000030CB000030CA000030C900003083162F
:100218000313AA000030A9000030A8000030A7008E
:10022800AC0196292C0803191A291B294A290130DF
:1002380083120313CD00031083160313A00DA10D21
:10024800A20DA30D83120313CD0B1F290130CD007E
:100258000310C90DCA0DCB0DCC0DCD0B2C2983165F
:100268000313AA1F382939293C2983120313491477
:1002780001308312CD00031083160313A70DA80DB8
:10028800A90DAA0D83120313CD0B3F298312480829
:10029800831603132302031D6729831203134708D8
:1002A800831603132202031D6729831203134608CA
:1002B800831603132102031D6729831203134508BC
:1002C800831603132002031C6A296B2994292A1711
:1002D80083120313450883160313A0028312031322
:1002E8004608031C460F79297C2983160313A102AB
:1002F800831203134708031C470F83298629831693
:100308000313A202831203134808031C480F8D2904
:10031800902983160313A30283120313831603136E
:100328000130AC071A302C02031C9B299C29162982
:1003380023082204210420040319A329A429CE296F
:100348002714CE290130CD000310C90DCA0DCB0DDD
:10035800CC0DCD0BA82983160313AA1FB429B529E0
:10036800B82983120313491401308312CD000310F6
:1003780083160313A70DA80DA90DAA0D8312031345
:10038800CD0BBB29FF3083160313A5070318A60A54
:10039800FF30A60783120313CB1FD329D429A6291C
:1003A80083160313AC01AA1FDA29DB29072AFF30B9
:1003B800270583120313CD00FF3083160313280586
:1003C80083120313CE00FF3083160313290583120B
:1003D8000313CF007F30831603132A0583120313F8
:1003E800D00050084F044E044D040319FC29FD2980
:1003F800022A013083160313AC00072A491C052A78
:10040800062A072AFD29831603132C0803190D2A27
:100418000E2A432A013083120313C9070030031838
:100428000130CA07003003180130CB070030031829
:100438000130CC074C1C212A222A432A4908CD0026
:100448004A08CE004B08CF004C08D0000130D1003C
:10045800500DD00CCF0CCE0CCD0CD10B2C2A500843
:10046800CC004F08CB004E08CA004D08C900013027
:1004780083160313A5070318A60A0030A6078316D8
:1004880003132608803AFF0080307F02031D4E2A9E
:10049800FF302502031C512A522A622AFF30831694
:1004A8000313A5000030A600003083120313CC000C
:1004B8000030CB000030CA000030C9008316031397
:1004C8002608803AFF0080307F02031D6D2A013024
:1004D80025020318702A712A822A83160313A5019C
:1004E800A601003083120313CC000030CB0000308B
:1004F800CA000030C90083160313A401831603132E
:100508002508AB002B1C892A8A2A8E2A83120313FA
:10051800CB17922A7F3083120313CB05831603135C
:100528002B0883120313CD0003104D0CCC00831647
:100538000313240883120313CC04AF2808000A12FB
:100548008A1521240A128A110A128A1516240A12F7
:100558008A110A128A1556240A128A11831603135D
:100568000608FE3986008312031306080138860040
:100578008316031306080238860008080138880025
:100588000708DF3987000708BF39870008081038CF
:1005980088000808F7398800831203130808F73918
:1005A8008800831603130808FB3988008312031395
:1005B8000808FB39880006083F3986000A128A11A4
:1005C800F4270A128A11E92A000083120313081E6D
:1005D800EE2AEF2AE82A0A128A1562240A128A11D8
:1005E800E83083120313BB000330BC000A128A15DB
:1005F800DB240A128A11831203130808F3398800CE
:10060800E830BB000330BC000A128A15DB240A124A
:100618008A118312031308080C388800E830BB00DD
:100628000330BC000A128A15DB240A128A118312CD
:1006380003130808F33988000A128A1527240A12B6
:100648008A110A128A1575250A128A118312031350
:100658003F0883160313BC00831203133E08831656
:100668000313BB0000303C02153003193B0203188A
:100678003E2B3F2B402B542B00303C0213300319E8
:100688003B020318482B492B4F2B0A128A151B24AF
:100698000A128A11542B0A128A1511240A128A1175
:1006A8000A128A1199230A128A118316031334082D
:1006B800BA003308B900390A031D672B3A0A03192F
:1006C800662B672B252B00303A02063003193902B6
:1006D800031C6F2B702B932B3D08031D742B752B5C
:1006E800952B0B087F398B008312031307082038DA
:1006F8008700FA30BB000030BC000A128A15DB24E0
:100708000A128A11831203130708DF3987000130A0
:1007180083160313BD000B0880388B00252BBD0101
:10072800252B252B0A128A110E282C308316031329
:10073800B7000130B800B501B601831203130716DC
:100748000A30B7000030B8000A128A15A4240A1229
:100758008A11EF30831203138705BD2B01308312F2
:100768000313B7000030B8000A128A15A4240A122D
:100778008A11831203138719C22BC32BD32B013081
:1007880083160313B7020030031CB803B802370AF4
:10079800031DD22B380A031DD22BD32BB22B831661
:1007A800031337083804031DDA2BDB2BE02BFF304B
:1007B800B300FF30B4005B2C3030B7007530B800A0
:1007C800F82B013083120313B7000030B8000A1267
:1007D8008A15A4240A128A11013083160313B50757
:1007E8000318B60A0030B60783120313871DFD2BC2
:1007F800FE2B0E2C013083160313B7020030031CA6
:10080800B803B802370A031D0D2C380A031D0D2C36
:100818000E2CE52B8316031337083804031D152CFB
:10082800162C172CDB2B350883120313B7008316FD
:100838000313360883120313B800B901BA01003054
:100848000A128A115C240A128A11831203133A08C5
:10085800CC003908CB003808CA003708C900403036
:10086800C800B930C7009930C6009A30C5000A12CE
:100878008A111E200A128A11831203134808D50010
:100888004708D4004608D3004508D2000A128A1146
:10089800ED260A128A1183120313530883160313D1
:1008A800B40083120313520883160313B30008001D
:1008B80083120313BF003F080319632C642C782CA0
:1008C800BA1F672C682C782C3709C1003809C20078
:1008D8003909C3003A09C400C10A0319C20A031935
:1008E800C30A0319C40A802C3A08C4003908C30093
:1008F8003808C2003708C1003A08390438043704F8
:10090800031D872C882C912C0030BA000030B900C8
:100918000030B8000030B700112D9630C0009F2C71
:100928000130C00701300310C40CC30CC20CC10C49
:10093800FF3E031D972CFE304405031DA42CA52C57
:10094800942CBF2C0130C0070130C10700300318B8
:100958000130C207003003180130C3070030031804
:100968000130C40701300310C40CC30CC20CC10C05
:10097800FF3E031DB72CFF304405031DC42CC52CB6
:10098800A62CD12C0130C0020130BB000310C10DD0
:10099800C20DC30DC40DBB0BCA2CC31BD42CD52C44
:1009A800DB2C023040020318DA2CDB2CC62C401852
:1009B800DE2CDF2CE72CFF30C105FF30C2057F306D
:1009C800C305FF30C4050310C00C4008BB00BC01C0
:1009D800BD01BE0118300310BB0DBC0DBD0DBE0D11
:1009E800FF3E031DEF2C3B08C1043C08C2043D0830
:1009F800C3043E08C4043F080319032D042D092D20
:100A0800BA1F072D082D092DC4174408BA0043083A
:100A1800B9004208B8004108B70008008312031360
:100A28000608FE3986002C30F4000130F5000A1261
:100A38008A15BE240A128A11831203130608013884
:100A48008600C430F4000930F5000A128A15BE2465
:100A58000A128A1183120313081C332D342D472DD3
:100A68000A128A154A240A128A113B2D00008312A1
:100A78000313081E402D412D3A2D0A128A153E24D3
:100A88000A128A11BA2DB401831207082038870088
:100A98003408031D502D512D552D080804388800A1
:100AA800582D0808FB398800831603133D08031DD9
:100AB8005E2D5F2D682D83120313861C642D652D12
:100AC800682D080808388800831603133D08031D9D
:100AD8006E2D6F2D8E2D831203138618742D752D90
:100AE8008E2D0808F73988000708DF3987000A12B1
:100AF8008A15C4260A128A110A128A157C240A1237
:100B08008A118312031307082038870001308316DF
:100B18000313BD00831603133D080319942D952D67
:100B28009A2D831203130808F73988008312081CCA
:100B38009E2D9F2DA12D0130B40034080319A52D39
:100B4800A62D482D831603133D080319AC2DAD2D92
:100B5800482D831203130708DF3987008316031310
:100B6800BD01831203130808FB39880008008312AB
:100B78000313CE01C71FC12DC22DCF2DC409C5092E
:100B8800C609C709C40A0319C50A0319C60A0319FD
:100B9800C70A0130CE00CB1FD22DD32DE02DC809B6
:100BA800C909CA09CB09C80A0319C90A0319CA0A13
:100BB8000319CB0A0130CE060030D2000030D10034
:100BC8000030D0000030CF004708460445044404F4
:100BD8000319EF2DF02D3B2E0130CD00FE2D0130F5
:100BE800CC000310C40DC50DC60DC70DCC0BF52DDB
:100BF8000130CD07C71F012E022EF32D0130CC0086
:100C08000310CF0DD00DD10DD20DCC0B042E4708FB
:100C18004B02031D192E46084A02031D192E4508CA
:100C28004902031D192E44084802031C1C2E1D2EC0
:100C38002C2E4408C8024508031C450FC902460863
:100C4800031C460FCA024708031C470FCB024F1468
:100C580001300310C70CC60CC50CC40CFF3E031DA5
:100C68002D2E0130CD02031D3A2E3B2E022E4E08AA
:100C780003193F2E402E4B2ECF09D009D109D20996
:100C8800CF0A0319D00A0319D10A0319D20A520844
:100C9800C7005108C6005008C5004F08C400080026
:100CA80083120313A901A31F5A2E5B2E682EA009D5
:100CB800A109A209A309A00A0319A10A0319A20AF2
:100CC8000319A30A0130A900A71F6B2E6C2E792ED9
:100CD800A409A509A609A709A40A0319A50A0319BD
:100CE800A60A0319A70A0130A9060030AD00003092
:100CF800AC000030AB000030AA0023082204210415
:100D080020040319882E892ED42E0130A800972E8E
:100D18000130FD000310A00DA10DA20DA30DFD0BC8
:100D28008E2E0130A807A31F9A2E9B2E8C2E0130E1
:100D3800FD000310AA0DAB0DAC0DAD0DFD0B9D2EE6
:100D480023082702031DB22E22082602031DB22EF5
:100D580021082502031DB22E20082402031CB52EEB
:100D6800B62EC52E2008A4022108031C210FA502B7
:100D78002208031C220FA6022308031C230FA70224
:100D88002A1401300310A30CA20CA10CA00CFF3EE6
:100D9800031DC62E0130A802031DD32ED42E9B2E70
:100DA80029080319D82ED92EE42EAA09AB09AC09B3
:100DB800AD09AA0A0319AB0A0319AC0A0319AD0A4B
:100DC8002D08A3002C08A2002B08A1002A08A000C7
:100DD8000800031083120313540D550D83160313D3
:100DE800B2003208031DF92EFA2E052F00308312A7
:100DF8000313D5000030D4000030D3000030D200F7
:100E0800842F83120313520883160313AD00831231
:100E18000313530883160313AE00831203135408F5
:100E280083160313AF0083120313550883160313A5
:100E3800B0001F300310B00CAF0CAE0CAD0CFF3E71
:100E4800031D1E2F2D08B10083120313D417FF3082
:100E5800D205FF30D305FF30D4050030D5059630D4
:100E680083160313B202B21F3A2F3B2F572F3208B3
:100E7800803A973E0318412F422F432FFA2E013014
:100E8800031083120313D50CD40CD30CD20CFF3EE1
:100E9800031D442F013083160313B207031D552F7A
:100EA800562F432F722F20303202031C5C2F5D2FE8
:100EB8006D2FFA2E0130AD00031083120313D20DEB
:100EC800D30DD40DD50D83160313AD0B602F013050
:100ED800B2023208031D712F722F5E2F31080319D9
:100EE800762F772F842F83120313D209D309D409BD
:100EF800D509D20A0319D30A0319D40A0319D50A42
:100F08000800E830F2000330F300831603131208D8
:100F180083120313B000B101B00EB10EF030B10569
:100F280030080F39B104F030B0053008103EF00039
:100F380031080318013E003EF1000A128A15FC240C
:100F48000A128A11700883120313A0007108A10005
:100F58000030A11BFF30A200A3002E08F0002F08CC
:100F6800F100F201F3010030F7001E30F600843082
:100F7800F5008030F4000A128A15E9250A128A1150
:100F8800730883120313A7007208A6007108A5004E
:100F98007008A4000A128A1154260A128A118312B0
:100FA80003132108B3002008B2003308B100320847
:100FB800B0000310B10CB00C0310B10CB00C300829
:100FC8009500CF30970532080339B000033003107D
:100FD800B00DFF3E031DEB2F0310300D97040800E2
:100FE8003C3083120313D3000030D4000A128A1550
:080FF8007F270A128A1108008C
:101822003F3083120313860508000F30831603131B
:1018320086050800BF308312031386058617080049
:10184200EF308316031387058715080083120313ED
:10185200810107308316031381000B08A0388B0027
:101862000800F93083160313920007308312031322
:1018720092000C309700950108003F308312031349
:10188200AE000130AF000A128A1185270A128A15AA
:1018920008003C3083120313AE000030AF000A127E
:1018A2008A1185270A128A150800F9308316031354
:1018B200920007308312031392000C3097009501B7
:1018C20008003F3083120313D3000130D4000A1200
:1018D2008A157F270A128A1508000C308312031317
:1018E2009D00C7308316031392000730831203133F
:1018F200920091010800CF30831203138605003055
:10190200AD00AE000A128A1577260A128A150A124B
:101912008A1532240A128A150800F201F301992C61
:10192200000000000130F2070318F30A0030F30749
:1019320071087302031D9F2C70087202031CA22CF3
:10194200A32C912C080083120313B901BA01B32C02
:1019520000000000013083120313B9070318BA0A0A
:101962000030BA0738083A02031DB92C3708390289
:10197200031CBC2CBD2CA92C0800F601F701D02CAD
:10198200E830F0000330F1000A128A158E240A12A0
:101992008A150130F6070318F70A0030F7077508B1
:1019A2007702031DD62C74087602031CD92CDA2C7C
:1019B200C12C080083120313BD01BE01F12CE830D3
:1019C200B7000330B8000A128A15A4240A128A1535
:1019D200013083120313BD070318BE0A0030BE078D
:1019E2003C083E02031DF72C3B083D02031CFA2C67
:1019F200FB2CE02C0800F401F501701C012D022DD6
:101A0200082D7208F4070318F50A7308F507013068
:101A12000310F20DF30DFF3E031D092D01300310DB
:101A2200F10CF00CFF3E031D102D70087104031D14
:101A32001B2D1C2DFE2C7508F1007408F000080007
:101A420083120313BB01BC01371C282D292D2F2D16
:101A52003908BB070318BC0A3A08BC070130031057
:101A6200B90DBA0DFF3E031D302D01300310B80C25
:101A7200B70CFF3E031D372D37083804031D422DD6
:101A8200432D252D3C08B8003B08B70008000B1D6C
:101A92004B2D4C2D6C2D81010130D7070318D80A2C
:101AA2000030D80771305706023003195806031D5B
:101AB2005B2D5C2D692D0B087F398B00D701D80176
:101AC2000A128A1112250A128A150B0880388B0015
:101AD2000B08FB398B008312031336088A00350E7C
:101AE2008300FE0E7E0E0900C030831603139F0092
:101AF2008530831203139F001F19802D812D7D2DA8
:101B02001E08C100831603131E0883120313C000AC
:101B12000330B7000030B8004108BA004008B900ED
:101B22000A128A15A5250A128A1583120313370889
:101B3200FF3EC00038080318013EFF3EC1004108C5
:101B4200BF004008BE00080083120313BB01BC01A2
:101B5200370838040319AE2DAF2DE42D0130BD0036
:101B6200BB2D01300310B70DB80DFF3E031DB32D81
:101B72000130BD07B81FBE2DBF2DB22D013003109D
:101B8200BB0DBC0DFF3E031DC02D38083A02031DDC
:101B9200CC2D37083902031CCF2DD02DD72D370875
:101BA200B9023808031CBA03BA023B14013003100D
:101BB200B80CB70CFF3E031DD82D0130BD02031D2A
:101BC200E32DE42DBF2D3C08B8003B08B700080008
:101BD2000030FC000030FB000030FA000030F90059
:101BE200701CF42DF52D0C2E7408F90775080311DD
:101BF2000318013E0319FE2DFA0776080311031894
:101C0200013E0319052EFB07770803110318013E55
:101C120003190C2EFC070130F8000310F40DF50D2A
:101C2200F60DF70DF80B0E2E01300310F30CF20C2B
:101C3200F10CF00CFF3E031D162E730872047104A2
:101C42007004031D252E262EF12D7C08F3007B083F
:101C5200F2007A08F1007908F000080000308312DF
:101C62000313C3000030C2000030C1000030C000C6
:101C7200371C3C2E3D2E542E3B08C0073C08031156
:101C82000318013E0319462EC1073D08031103182C
:101C9200013E03194D2EC2073E0803110318013EEF
:101CA2000319542EC3070130BF000310BB0DBC0D36
:101CB200BD0DBE0DBF0B562E01300310BA0CB90C70
:101CC200B80CB70CFF3E031D5E2E3A0839043804E7
:101CD2003704031D6D2E6E2E392E4308BA004208BA
:101CE200B9004108B8004008B7000800003083126C
:101CF2000313A3000030A2000030A1006430A00052
:101D02002D08F0002E08F100F201F3010030F70077
:101D12000030F6000330F500FF30F4000A128A1595
:101D2200E9250A128A15730883120313A7007208A1
:101D3200A6007108A5007008A4000A128A151927C6
:101D42000A128A15831203132108B2002008B10077
:101D52003208B0003108AF000310B00CAF0C031012
:101D6200B00CAF0C2F089B00CF309D053108033912
:101D7200AF0003300310AF0DFF3E031DBB2E031057
:101D82002F0D9D040800831203130616DF3086050B
:101D92000A128A156E240A128A15C830F40000301D
:101DA200F5000A128A15BE240A128A1550308312CF
:101DB2000313AD000030AE000A128A1577260A120C
:101DC2008A151030F4002730F5000A128A15BE2455
:101DD2000A128A15323083120313AD000030AE00AE
:101DE2000A128A1577260A128A157030F400173003
:101DF200F5000A128A15BE240A128A151E308312B1
:101E02000313AD000030AE000A128A1577260A12BB
:101E12008A15B830F4000B30F5000A128A15BE2478
:101E22000A128A150A128A157C240A128A150800D7
:101E3200003083120313AB000030AA000030A90067
:101E42000030A800230822042104200403192A2FA9
:101E52002B2F762F0130AC00392F0130FD000310FB
:101E6200A00DA10DA20DA30DFD0B302F0130AC076B
:101E7200A31F3C2F3D2F2E2F0130FD000310A80D74
:101E8200A90DAA0DAB0DFD0B3F2F23082702031D41
:101E9200542F22082602031D542F21082502031D58
:101EA200542F20082402031C572F582F672F200875
:101EB200A4022108031C210FA5022208031C220FE1
:101EC200A6022308031C230FA702281401300310C3
:101ED200A30CA20CA10CA00CFF3E031D682F013025
:101EE200AC02031D752F762F3D2F2B08A3002A0865
:101EF200A2002908A1002808A0000800E8308312E7
:101F02000313B9000330BA008316031312088312B5
:101F12000313D500D601D50ED60EF030D6055508DE
:101F22000F39D604F030D5055508103EB7005608D3
:101F32000318013E003EB8000A128A1521250A1232
:101F42008A15831203133708C4003808C50000300D
:101F5200C51BFF30C600C7005308B7005408B800BD
:101F6200B901BA010030BE001E30BD008430BC0091
:101F72008030BB000A128A152F260A128A15831294
:101F820003133A08CB003908CA003808C9003708D9
:101F9200C8000A128A11BB250A128A15831203137A
:101FA200450883160313A100831203134408831602
:101FB2000313A000210883120313D6008316031310
:101FC200200883120313D5000310D60CD50C03107E
:101FD200D60CD50C55089500CF3097058316031300
:101FE2002008033983120313D50003300310D50DE3
:0E1FF200FF3E031DF72F0310550D9704080046
:02400E003A3F37
:00000001FF
